:060000000A128A15FC291A
:10000E005A300A128A15CD210A128A114830F2008E
:10001E00AF30F100F10B1128F20B11281A300A1231
:10002E008A15CD210A128A110430F2009130F100A6
:10003E00F10B1F28F20B1F2817300A128A15CD213B
:10004E000A128A110930F200B230F100F10B2D289C
:10005E00F20B2D2864001A300A128A15CD210A12CD
:10006E008A110800831203132B08133EAD002C08CF
:10007E000318013E003EAE002D08840083172E1C8F
:10008E0083130008AF00840A0008B0002B08053E59
:10009E00B1002C080318013E003EB2003108840066
:1000AE008317321C83130008F000840A0008F10045
:1000BE001030F2000E30F3000A128A154D210A128A
:1000CE008A11700883120313B3007108B4002B0851
:1000DE000C3EB5002C080318013E003EB600350854
:1000EE0084008317361C83130008F000840A00086E
:1000FE00F1003C30F2000030F3000A128A154D2157
:10010E000A128A117008831203133307B70071089D
:10011E000318710A3407B8002F083707BB003008E0
:10012E000318300A3807BC0027080C3EAD0028081B
:10013E000318013E003EAE002D08840083172E1CCE
:10014E0083130008C200840A0008C3004308F101AB
:10015E00F1074208F001F007E830F2000330F30037
:10016E000A128A15A6220A128A1171088312031323
:10017E00BA01BA077008B901B9070530F0000030AE
:10018E00F1003A08F301F3073908F201F2070A12F7
:10019E008A15A6220A128A117108F901F907700848
:1001AE00F801F8070A168A1184270A128A117808AC
:1001BE0083120313BD007908BE007A08BF004308FE
:1001CE00F101F1074208F001F0073C08F301F307D3
:1001DE003B08F201F2070A128A15A6220A128A11A8
:1001EE00710883120313C101C1077008C001C00753
:1001FE00C401C501203084003B30AD000408AE00C0
:10020E000B30AF002D08840083130008B000AD0A38
:10021E002E08840030088000AE0AAF0B092917297A
:10022E000800831203132A08B0002B08B1002C0813
:10023E00B2000310310D320DB3003308B400B40810
:10024E00031D2A292B2933290030AA000030AB00C8
:10025E000030AC00052A052A2D08B0002E08B1008A
:10026E002F08B2000310310D320DB3003308B90060
:10027E00B908031D432944294C290030AA00003037
:10028E00AB000030AC00052A052A39087B3EB000D1
:10029E003008B4072A08B0002B08B1002C08B200B1
:1002AE0010300310B20CB10CB00CFF3E031D5829D8
:1002BE003008B3003308B9002D08B0002E08B10085
:1002CE002F08B20010300310B20CB10CB00CFF3E70
:1002DE00031D6A293008B3003308B9068030B00018
:1002EE003008B905AB17AE17FF30AD05FF30AE05C0
:1002FE000030AF050030B5000030B6000030B7005A
:10030E000730B0003008B8008C292A1C8F2990299C
:10031E00A1292D08B5072E08031103182E0A03195B
:10032E009929B6072F08031103182F0A0319A029BC
:10033E00B707A12901300310AC0CAB0CAA0CFF3E81
:10034E00031DA22901300310AD0DAE0DAF0DFF3E02
:10035E00031DAA290130B802031DB629B7298C291D
:10036E00B8290930B0003008B800BD292A1CC029B0
:10037E00C129D2292D08B5072E08031103182E0AFC
:10038E000319CA29B6072F08031103182F0A0319D8
:10039E00D129B707D22901300310AC0CAB0CAA0C33
:1003AE00FF3E031DD32901300310B70CB60CB50C5C
:1003BE00FF3E031DDB290130B802031DE729E829A2
:1003CE00BD29E9293508F0003608F1003708F2009A
:1003DE003408B0003008F3003908B1003108F400D9
:1003EE000A128A15BA230A128A117008831203138D
:1003FE00AA007108AB007208AC00052A080083122F
:10040E000313AB002130A5002508AA00252B2F08C9
:10041E00253A0319132A142A202A2F08A5002B087F
:10042E0084002508831380000130A5002508AB0742
:10043E00252BA8015F2A392B772A772A2A088400D0
:10044E0083130008A5002508AC000130A50025087F
:10045E00AA07AC08031D342A352A4F2AA730A50057
:10046E002508AC004F2A4F2A2C0884000A128A1540
:10047E0000200A128A11A5002B088400250880008E
:10048E000130A5002508AC070130A5002508AB07F3
:10049E002C0884000A128A1500200A128A110038CC
:1004AE00031D5A2A5B2A3B2A252B252B252B772A1F
:1004BE000130A007FF30200784000A128A150020A1
:1004CE000A128A11AF00003A0319392B643A031944
:1004DE00772A0D3A0319772A1A3A0319252A252B5A
:1004EE002A08840083130008AC00840A0008AD00BB
:1004FE000230A5002508AA07AD1F862A872A912A51
:10050E000330A5002508A804AC09AD09AC0A0319EF
:10051E00AD0A912AAF010314AF0D2F08053A031D42
:10052E00992A9A2A9C2AC42AC42A2F08A50025078C
:10053E00213E84000A128A1500200A128A11A60092
:10054E000A128A1500200A128A11A70027082D0206
:10055E00031DB32A26082C020318B62AB72AB92A75
:10056E00C42AC42A0130A5002508AF072F08053A72
:10057E00031DC22AC32A9C2AC42A28080339031938
:10058E00C92ACA2AD62A2D30A5002B088400250890
:10059E00831380000130A5002508AB07D62A2F084B
:1005AE00A5002508A900192B0A30F8000030F90023
:1005BE002908A5002507213E84000A128A1500206D
:1005CE000A128A11F0000A128A1500200A128A11E4
:1005DE00F1002D08F301F3072C08F201F2070A12BD
:1005EE008A15A6220A128A117108FB01FB077008F0
:1005FE00FA01FA070A128A1562220A128A1178087B
:10060E00303E83120313A6002608AF002F08A50064
:10061E002B0884002508831380000130A5002508CF
:10062E00AB07192BFF30A5002508A9072908FF3AAB
:10063E00031D222B232BDB2A252B252B0130A00774
:10064E00FF30200784000A128A1500200A128A1130
:10065E00A5002508AF00AF08031D362B372B0E2A39
:10066E00392B392B2B088400831380013E2B080075
:10067E0002303A3E84008313000883120313AD0048
:10068E00840A0008AE00840A0008AF000030AA00F9
:10069E004830AB004330AC000A128A1118210A12FE
:1006AE008A11831203132A08F8002B08F9002C086C
:1006BE00FA000A128A158D260A128A1179088312F7
:1006CE000313CD01CD077808CC01CC07D001D101A1
:1006DE00932C02300A128A15EA200A128A1183120A
:1006EE0003134308031D7C2B7F2BCE01CF01842BDC
:1006FE000330CE000030CF00842B50080339C500E4
:10070E0003300310C50DFF3E031D882B0130450736
:10071E00C6004E09C7004F09C800C70A0319C80A08
:10072E004708033EF00048080318013E003EF10062
:10073E000A168A115F270A128A1170088312031390
:10074E00C9004907460784000A128A1500200A12BA
:10075E008A11CA000A128A1500200A128A11CB00C9
:10076E004A18BA2BBE2B831203130514C12B831206
:10077E000313051050080339C50003300310C50DCF
:10078E00FF3E031DC52B01304507C6004E09C700AD
:10079E004F09C800C70A0319C80A4708023EF000ED
:1007AE0048080318013E003EF1000A168A115F2721
:1007BE000A128A11700883120313C90049074607EB
:1007CE0084000A128A1500200A128A11CA000A121F
:1007DE008A1500200A128A11CB004A18F72BFB2B20
:1007EE00831203138514FE2B8312031385105008F6
:1007FE000339C50003300310C50DFF3E031D022C47
:10080E0001304507C6004E09C7004F09C800C70A88
:10081E000319C80A4708013EF00048080318013EB4
:10082E00003EF1000A168A115F270A128A1170081B
:10083E0083120313C9004907460784000A128A155A
:10084E0000200A128A11CA000A128A1500200A1202
:10085E008A11CB004A18342C382C83120313051539
:10086E003B2C83120313051150080339C5000330C6
:10087E000310C50DFF3E031D3F2C01304507C6007A
:10088E004E09C7004F09C800C70A0319C80A47080E
:10089E00F0004808F1000A168A115F270A128A1121
:1008AE00700883120313C9004907460784000A1211
:1008BE008A1500200A128A11CA000A128A1500200F
:1008CE000A128A11CB004A186D2C712C8312031355
:1008DE008515742C831203138511061C772C782C26
:1008EE008C2C7A2C7A2C06187D2C7E2C7A2C7F2C34
:1008FE004308013A031D842C852C872CC3018C2CB4
:10090E00C3010314C30D8C2C8C2C0130D00703189B
:10091E00D10A0030D107932C5108803AC5004D08FA
:10092E00803A4502031D9D2C4C085002031CA02C3E
:10093E00A12C702BA22C0A168A1149270A128A1191
:10094E00A82C08000A168A1150270A128A1183123F
:10095E000313B408031DB42CB52CE72CBF30BD0017
:10096E003D08A0003208BE003E07053E303E840022
:10097E0083130008BF00840A0008C0000730C100BE
:10098E004108F00033080A168A11B3270A128A1199
:10099E00831203133F07C20040080318013EC30031
:1009AE00420884008317431C83130008C4004408C4
:1009BE00A1004F300A128A1106220A128A111B2D2B
:1009CE00BA3083120313BD003D08A0003208BE00EA
:1009DE003E07053E303E840083130008BF00840AA4
:1009EE000008C0000730C1004108F00033080A16A5
:1009FE008A11B3270A128A11831203133F07C2000A
:100A0E0040080318013EC300420884008317431CAC
:100A1E0083130008C4004408A1004F300A128A1143
:100A2E0006220A128A111B2D80300A128A15A12164
:100A3E000A128A114F300A168A11CB270A128A110E
:100A4E00831203133208BD003D07053E303E84007D
:100A5E0083130008BE00840A0008BF000730C000E0
:100A6E004008F00033080A168A11B3270A128A11B9
:100A7E00831203133E07C1003F080318013EC20054
:100A8E004108053EC30042080318013E003EC40063
:100A9E00430884008317441C83130008C500840A8E
:100AAE000008C600FF304506460403195F2D602D71
:100ABE00482EB408031D642D652DCF2D8730BD0043
:100ACE003D08A0003208BE003E07053E303E8400C1
:100ADE0083130008BF00840A0008C0000730C1005D
:100AEE004108F00033080A168A11B3270A128A1138
:100AFE00831203133F07C20040080318013EC300D0
:100B0E004208053EC40043080318013E003EC500DE
:100B1E00440884008317451C83130008A100840A2F
:100B2E000008A2003208C6004607053E303E84008B
:100B3E0083130008C700840A0008C8000730C900E4
:100B4E004908F00033080A168A11B3270A128A11CF
:100B5E00831203134707CA0048080318013ECB004F
:100B6E004A08013ECC004B080318013E003ECD0062
:100B7E004C08840083174D1C83130008CE004E08CA
:100B8E00A3004F300A128A1106220A128A113B2E36
:100B9E008F3083120313BD003D08A0003208BE0043
:100BAE003E07053E303E840083130008BF00840AD2
:100BBE000008C0000730C1004108F00033080A16D3
:100BCE008A11B3270A128A11831203133F07C20038
:100BDE0040080318013EC3004208053EC400430806
:100BEE000318013E003EC500440884008317451CCF
:100BFE0083130008A100840A0008A2003208C60070
:100C0E004607053E303E840083130008C700840A61
:100C1E000008C8000730C9004908F00033080A165A
:100C2E008A11B3270A128A11831203134707CA00C7
:100C3E0048080318013ECB004A08013ECC004B0881
:100C4E000318013E003ECD004C08840083174D1C56
:100C5E0083130008CE004E08A3004F300A128A11EB
:100C6E0006220A128A113B2EC0300A128A15A121C1
:100C7E000A128A114F300A168A11CB270A128A11CC
:100C8E00482E423083120313BD00BD0B4C2E640060
:100C9E000800CF308400A03083120313E70004084D
:100CAE00E8000D30E9006708840083130008EA00AD
:100CBE00E70A680884006A088000E80AE90B5A2EE1
:100CCE00C4308400DC30E7000408E8000B30E90093
:100CDE006708840083130008EA00E70A68088400A6
:100CEE006A088000E80AE90B6F2E0A168A119B2704
:100CFE000A128A110A128A152B220A128A110A1650
:100D0E008A1149270A128A119C2F9C2F3030840099
:100D1E00CF3083120313E7000408E8000D30E9001A
:100D2E006708840083130008EA00E70A6808840055
:100D3E006A088000E80AE90B972E0A128A11A92484
:100D4E000A128A110A128A15F4220A128A117108DD
:100D5E0083160313C301C3077008C201C207862F8F
:100D6E0020308400CF3083120313E7000408E8001C
:100D7E000D30E9006708840083130008EA00E70AD3
:100D8E00680884006A088000E80AE90BC12E0A127E
:100D9E008A1535240A128A11CF3084008312031368
:100DAE002030EB000408EC000D30ED006B088400E1
:100DBE0083130008EE00EB0A6C0884006E088000B6
:100DCE00EC0AED0BDD2E9C2F20308400CF308312E9
:100DDE00E7000408E8000D30E9006708840083137B
:100DEE000008EA00E70A680884006A088000E80A3A
:100DFE00E90BF42E0A128A15BC240A128A11CF307E
:100E0E008400831203132030EB000408EC000D3035
:100E1E00ED006B08840083130008EE00EB0A6C08EB
:100E2E0084006E088000EC0AED0B102F9C2F2030F2
:100E3E008400CF308312E7000408E8000D30E9008B
:100E4E006708840083130008EA00E70A6808840034
:100E5E006A088000E80AE90B272F0A128A15332741
:100E6E000A128A11CF308400831203132030EB0054
:100E7E000408EC000D30ED006B08840083130008AD
:100E8E00EE00EB0A6C0884006E088000EC0AED0B95
:100E9E00432F9C2F20308400CF308312E7000408AC
:100EAE00E8000D30E9006708840083130008EA00AB
:100EBE00E70A680884006A088000E80AE90B5A2FDE
:100ECE000A128A15F0250A128A11CF308400831275
:100EDE0003132030EB000408EC000D30ED006B081E
:100EEE00840083130008EE00EB0A6C0884006E0881
:100EFE008000EC0AED0B762F9C2F9C2F9C2F8316D7
:100F0E0003134308003A03198D2F9C2F4208013A10
:100F1E000319B72E033A0319EB2E013A03191E2FAC
:100F2E00073A0319512F9C2F9C2F83160313500839
:100F3E004F040319A32FA42F8D2EA52F203084002C
:100F4E00CF3083120313E7000408E8000D30E900E8
:100F5E006708840083130008EA00E70A6808840023
:100F6E006A088000E80AE90BAF2F0A128A113920AD
:100F7E000A128A11C4308400831203132030EB004E
:100F8E000408EC000B30ED006B088400831300089E
:100F9E00EE00EB0A6C0884006E088000EC0AED0B84
:100FAE00CB2F52308400C430E7000408E8000B3029
:100FBE00E9006708840083130008EA00E70A68085E
:100FCE0084006A088000E80AE90BE02F0A128A15ED
:100FDE0056250A128A110A168A1149270A128A11EF
:100FEE0083160313CF01D0019C2F9C2F0A128A1156
:100FFE00002808308A000408840A8207003400346E
:10100E00003401340034013400340034003401342F
:10101E000034003400340134003400340034013420
:10102E000034003400340034003401340034003411
:10103E0000340134003400340034013400340134FF
:10104E0000340A34003464340034E8340334103489
:10105E002734033402340134033454346F346F3480
:10106E006B343A3425346434203454346F3444347D
:10107E006F343A34253464340034543461346B3470
:10108E00653420346134203450346934633474341C
:10109E0075347234653400345434723479342034F7
:1010AE004634653461347434753472346534733453
:1010BE000034533470343A34253464342034533489
:1010CE0063343A3425346434003454346F34743415
:1010DE0061346C342034533468346F347434733464
:1010EE00003454346F34743461346C3420345434DA
:1010FE0069346D3465340034533465347434743467
:10110E0069346E346734733400342034203425341B
:10111E00643420342534733400343E342034253482
:10112E0064342034253473340034533465346334DA
:10113E006F346E346434733400344D3469346E3429
:10114E007534743465347334003428346E34753425
:10115E006C346C342934003448346F347534723442
:10116E007334003453347434613472347434003450
:10117E00203420342534733400343E342034253466
:0C118E0073340034683400346D340034D5
:10119C00F4000430F3007308F500D428FA300A1276
:1011AC008A15EA200A128A1564000130F502031D23
:1011BC00E028E128D428E2280130F402031DE728B6
:1011CC00E828CF28E9280800F1000430F000700866
:1011DC00F2007D30F000700883120313EF00000062
:1011EC00EF0BF52864000130F202031DFE28FF28E6
:1011FC00EF2800290130F102031D05290629EB28EF
:10120C0007290800003400340034003400349034D2
:10121C000134AD340034BB340034A53401347334A0
:10122C00AD34003400340334FF3400346734AD344F
:10123C0000340034FF34643400343F34AD340034B3
:10124C000134FD34FF340034F1008312031385168E
:10125C002130F000F00B30297108F000043003103D
:10126C00F00CFF3E031D3529700883120313870011
:10127C000A168A1157270A128A157108831203134A
:10128C0087000A168A1157270A128A150800F401DA
:10129C00F5015029701C532954295A297208F40756
:1012AC000318F50A7308F50701300310F20DF30D5E
:1012BC00FF3E031D5B2901300310F10CF00CFF3EC7
:1012CC00031D622971087004031D6D296E295029B4
:1012DC006F297508F101F1077408F001F007762900
:1012EC0008007E34AD34FF34FF340134FF34003455
:1012FC004E34AD34FF34FF340234FF340034B43494
:10130C00AD34FF34FF34FE34FF340034AE34C43417
:10131C0001340034FF34003400349F34C6340134BB
:10132C000034FF34033400349734BD3401340034BA
:10133C00FF3400340034F200831203138512213081
:10134C00F000F00BA7297208F00004300310F00C29
:10135C00FF3E031DAC2970088312031387000A1685
:10136C008A1157270A128A157208831203138700F1
:10137C000A168A1157270A128A150330F100973082
:10138C00F000F00BC729F10BC729CC290800F0009D
:10139C00F2298312031386140000000000000000E1
:1013AC000000000000000000000000000000000031
:1013BC000000000000000000000000000000000021
:1013CC0083120313861000000000000000000000D0
:1013DC00000000000000F2290130F0027008FF3A12
:1013EC00031DF929FA29CF29FB290800EF018316DF
:1013FC000313DC01DD01DE01DF01E001E101E201AB
:10140C00E301E401E501E601E7018317BA30FD00D1
:10141C000930FE007730FF00903084000A168A11E4
:10142C0075270A128A158313C230FD000930FE009D
:10143C000830FF00A03084000A168A1175270A12A2
:10144C008A1583010A128A11502E38300A128A1515
:10145C00A1210A128A1538300A128A15A1210A1202
:10146C008A1538300A128A15A1210A128A152830D9
:10147C000A128A15A1210A128A1528300A128A1515
:10148C00A1210A128A1528300A128A15A1210A12E2
:10149C008A150C300A128A15A1210A128A150130FC
:1014AC000A128A15A1210A128A1506300A128A1507
:1014BC00A1210A128A150800790878040319672AF1
:1014CC00682A9E2AFD010314FD0D782A01300310B1
:1014DC00F80DF90DFF3E031D6D2A0130FC007C0850
:1014EC00FD07782AF91F7B2A7C2A6C2A7E2A7E2A01
:1014FC0079087B02031D842A78087A02031C872A48
:10150C00882A8F2A7808FA027908031CFB03FB024D
:10151C008F2A01300310F90CF80CFF3E031D902AA2
:10152C000130FD02031D9B2A9C2A7E2A9E2A9E2A9C
:10153C007B08F901F9077A08F801F807A52A0800D1
:10154C00F501F601710870040319AD2AAE2AEC2AD4
:10155C00F7010314F70DBE2A01300310F00DF10D45
:10156C00FF3E031DB32A0130F4007408F707BE2AAE
:10157C00F11FC12AC22AB22AC42AC42A013003107C
:10158C00F50DF60DFF3E031DC52A71087302031DF0
:10159C00D12A70087202031CD42AD52ADD2A7008BD
:1015AC00F2027108031CF303F3027514DD2A0130F7
:1015BC000310F10CF00CFF3E031DDE2A0130F70284
:1015CC00031DE92AEA2AC42AEC2AEC2A7608F1013E
:1015DC00F1077508F001F007F32A0800F201F30196
:1015EC00392B83120313861FFC2AFD2A082B01308A
:1015FC00F2000030F300022B861B052B062B022B6E
:10160C00392B392B061E0B2B0C2B172B0230F2000F
:10161C000030F300112B061A142B152B112B392B20
:10162C00392B061F1A2B1B2B262B0330F2000030F4
:10163C00F300202B061B232B242B202B392B392B8F
:10164C00861E292B2A2B392B0430F2000030F30094
:10165C002F2B861A322B332B2F2B392B392B392B43
:10166C00392B392B392B7308720403193E2B3F2B62
:10167C00F72A402B7308F101F1077208F001F0070B
:10168C00472B08000230303E840083130008F8001A
:10169C00840A0008F900840A0008FA000A128A1564
:1016AC008D260A128A15790883120313D101D107EA
:1016BC007808D001D0070A168A1150270A128A1509
:1016CC002F3083120313BB003B08A0003A08BC0068
:1016DC00BD013C08A1003D08A2003A08BE00BF01B4
:1016EC00BE09BF09BE0A0319BF0A37083E07A3008B
:1016FC0038080318380A3F07A40040300A128A1130
:10170C0006220A128A1580300A128A15A1210A12A1
:10171C008A1540300A168A11CB270A128A155B30BB
:10172C0083120313BB003B08A0005108A201A207BF
:10173C005008A101A1073608A401A4073508A3018C
:10174C00A30740300A128A1106220A128A15C030E9
:10175C000A128A15A1210A128A1540300A168A111A
:10176C00CB270A128A1508007308031DBE2BC62B43
:10177C00720871047004031DC42BC52BDC2BC62B03
:10178C000030F0000030F1000030F200342C342C2A
:10179C00DC2B0130F5007508F30701300310F20C57
:1017AC00F10CF00CFF3E031DD42BDC2BFE3072052C
:1017BC00031DE12BE22BCF2BFA2BFA2B0130F5007A
:1017CC007508F3070130F007003003180130F107FA
:1017DC00003003180130F20701300310F20CF10C49
:1017EC00F00CFF3E031DF32BFF307205031DFF2B86
:1017FC00002CE42B0D2C0D2C0130F30201300310C6
:10180C00F00DF10DF20DFF3E031D052C0D2CF11FFB
:10181C00102C112C022C7318142C152C1B2CFF3093
:10182C00F0057F30F105FF30F2050310F30C73085F
:10183C00F500F601F70110300310F50DF60DF70D5C
:10184C00FF3E031D222C7508F0047608F10477087E
:10185C00F2047408031D332C342CF2170800831285
:10186C0003132408013A031D3C2C3D2CB02C2208F8
:10187C00F4007407053E203E840083130008F50035
:10188C00840A0008F6000730F7007708F0002308F8
:10189C000A168A11B3270A128A157507F8007608FA
:1018AC000318013EF9007808053EFA007908031880
:1018BC00013E003EFB007A08840083177B1C8313D7
:1018CC000008FC00840A0008FD007D08803AFF0037
:1018DC0080307F02031D742C01307C02031C772C9A
:1018EC00782CBA2C831203132208F4007407053EDB
:1018FC00203E840083130008F500840A0008F600DB
:10190C000730F7007708F00023080A168A11B3276E
:10191C000A128A157507F80076080318013EF900BB
:10192C007808053EFA0079080318013E003EFB00DA
:10193C007A08840083177B1C8313FF308007840F85
:10194C0000080318000AFF00FF307F0780008403A3
:10195C00BA2CBA2C831203132308031DB62CBA2CF1
:10196C000130A302BA2CBA2CBB2C0800831203132F
:10197C002408013A031DC32CC42C312D2208F40079
:10198C007407053E203E840083130008F500840A8A
:10199C000008F6000730F7007708F00023080A1655
:1019AC008A11B3270A128A157507F80076080318EE
:1019BC00013EF9007808053EFA0079080318013E4B
:1019CC00003EFB007A08840083177B1C83130008FD
:1019DC00FC00840A0008FD007D08803AFF0081307D
:1019EC007F02031DFB2C00307C020318FE2CFF2C05
:1019FC00542D831203132208F4007407053E203E75
:101A0C00840083130008F500840A0008F6000730F0
:101A1C00F7007708F00023080A168A11B3270A1278
:101A2C008A157507F80076080318013EF900780846
:101A3C00053EFA0079080318013E003EFB007A08C7
:101A4C00840083177B1C831301308007840A0318DE
:101A5C00800A542D542D8312031322082B3E84002C
:101A6C000A128A1500200A128A15FF3EF400FF3074
:101A7C0003180030F5007508803A803C031D482D92
:101A8C007408230203184B2D4C2D542D0130F400F7
:101A9C00740883120313A307542D542D552D0800DD
:101AAC0030308400523083120313DD000408DE0052
:101ABC000B30DF005D08840083130008E000DD0AB2
:101ACC005E08840060088000DE0ADF0B602D0A12BD
:101ADC008A1548230A128A1583120313E501E601BD
:101AEC00DE2D57080A128A15CE200A128A153A30B2
:101AFC008400523083120313DD000408DE000B3027
:101B0C00DF005D08840083130008E000DD0A5E0836
:101B1C00840060088000DE0ADF0B872D0A128A1110
:101B2C003F230A128A1552308400831203133A3071
:101B3C00E1000408E2000B30E30061088400831329
:101B4C000008E400E10A6208840064088000E20AEC
:101B5C00E30BA32D5C080A168A11E5270A128A15D5
:101B6C0083120313DD005D08DC003030840052303A
:101B7C00DD000408DE000B30DF005D0884008313F9
:101B8C000008E000DD0A5E08840060088000DE0AC0
:101B9C00DF0BC32D0A128A1548230A128A1501304D
:101BAC0083120313E5070318E60A0030E607DE2D5F
:101BBC005A086602031DE42D59086502031CE72D23
:101BCC00E82D772DE92D02300A128A15CE200A1243
:101BDC008A150800831203132208F4007407053ECB
:101BEC00203E840083130008F500840A0008F600E8
:101BFC000730F7007708F00023080A168A11B3277C
:101C0C000A128A157507F80076080318013EF900C8
:101C1C007808023EFA0079080318013E003EFB00EA
:101C2C007A08840083177B1C83130008FF3A03197E
:101C3C00202E212E8B2E831203132408013A031D10
:101C4C00282E292E2B2EA4018B2E2208F40074078B
:101C5C00053E203E840083130008F500840A00082A
:101C6C00F6000730F7007708F00023080A168A11EF
:101C7C00B3270A128A157507F80076080318013E77
:101C8C00F9007808033EFA0079080318013E003E7B
:101C9C00FB007A08840083177B1C83130008FC006C
:101CAC007C0883120313A3002208F4007407053E7A
:101CBC00203E840083130008F500840A0008F60017
:101CCC000730F7007708F00023080A168A11B327AB
:101CDC000A128A157507F80076080318013EF900F8
:101CEC007808023EFA0079080318013E003EFB001A
:101CFC007A08840083177B1C83130008FC007C0883
:101D0C0083120313A2008B2E8B2E8C2E08007808C6
:101D1C0083120313A0007908A1007A08A200031013
:101D2C00210D220DA3002308A900A908031D9F2E35
:101D3C00A02EAA2E0030FB000030FA000030F90073
:101D4C000030F800322F322F7808A0007908A1005B
:101D5C007A08A20017300310A20CA10CA00CFF3EB5
:101D6C00031DB12E2008A3002308A400F917FF308F
:101D7C00F805FF30F9050030FA057808A500790858
:101D8C00A6007A08A700A8018E30A902A91FCF2EA1
:101D9C00D02EF52E2908803A8F3E0318D62ED72E3A
:101DAC00E22E0030FB000030FA000030F900003069
:101DBC00F800322F322FE22E01300310A80CA70CA2
:101DCC00A60CA50CFF3E031DE32E0130A00020083D
:101DDC00A907031DF22EF32EE22E192F192F1830FE
:101DEC002902031CFA2EFB2E122F0030FB000030B0
:101DFC00FA000030F9000030F800322F322F122F89
:101E0C000130A0000310A50DA60DA70DA80DA00B69
:101E1C00082F0130A902122FA908031D162F172F06
:101E2C00062F192F192F2408031D1D2F292FA50943
:101E3C00A609A709A809A50A0319A60A0319A70A3E
:101E4C000319A80A292F2808FB002708FA002608DE
:101E5C00F9002508F800322F08008312031322081A
:101E6C00AD002D07053E203E840083130008AE0014
:101E7C00840A0008AF000730B0003008F0002308D7
:101E8C000A168A11B3270A128A15831203132E0716
:101E9C00B1002F080318013EB2003108043EB30014
:101EAC0032080318013E003EB40033088400831747
:101EBC00341C8313FA300002031C652F662FCD2FC0
:101ECC00942F942F2408013A031D6D2F6E2F702F21
:101EDC00A401FE2FA4010314A40DFE2FFE2F01302C
:101EEC00A0000030A100FE2F7B2F00300A168A11B3
:101EFC00E5270A128A15153083120313AF004B30F5
:101F0C00AE00D130AD00AD0B892FAE0B892FAF0BCE
:101F1C00892F64007B2F7B2FFE2FFE2F8312031340
:101F2C002208AD002D07053E203E840083130008D7
:101F3C00AE00840A0008AF000730B0003008F00093
:101F4C0023080A168A11B3270A128A15831203135F
:101F5C002E07B1002F080318013EB2003108043ED1
:101F6C00B30032080318013E003EB400330884006D
:101F7C008317341C83130008FD3A03197B2F033A93
:101F8C000319752F013A0319682FFE2FFE2F220813
:101F9C00AD002D07053E203E840083130008AE00E3
:101FAC00840A0008AF000730B0003008F0002308A6
:101FBC000A168A11B3270A128A15831203132E07E5
:101FCC00B1002F080318013EB2003108043EB300E3
:101FDC0032080318013E003EB40033088400831716
:101FEC00341C83130008B5003508A200A301FE2F92
:041FFC00FF2F0800AB
:102E920083120313051085100511851108000130F6
:102EA2000A128A15A1210A168A1108008312031335
:102EB20005165B2F8312031305120800F11F622F00
:102EC200632F702F7009F2007109F300F20A0319DF
:102ED200F30A7208F0007308F100702F702F0800D7
:102EE2007E088A007F0882000A168A1171270A1654
:102EF2008A118000840A04087D0603190034FF0A3F
:102F02000319FE0A752F7808F0007908F100F20122
:102F12008E30FB007B08F300F4010A128A15BA23F3
:102F22000A168A117008F8007108F9007208FA008E
:102F32009A2F0800F130831603138F0083160317AC
:102F420089018801831603138501F1308600870108
:102F52008801890183120313850186018701880193
:102F620089010800F300F201731CB82FB92FBE2F9C
:102F72007008F1007108F207BE2F0310F00D031064
:102F8200F30CF308031DC62FC72FB52FC82F7208E5
:102F9200CA2F0800F300DB2F730884008313000894
:102FA2000A128A152A210A168A110130F2007208C1
:102FB200F307DB2F7308840083138008031DE22FBD
:102FC200E32FCD2FE42F0800F5000A128A11072003
:102FD2000A168A11A430F400A130F300F30BEF2F8C
:102FE200F40BEF2FF42F0A128A1107200A168A1106
:0E2FF2000130F3007308F5077508FF2F080083
:04400E000420082062
:00000001FF
